{
  "contractName": "Lottery",
  "abi": [
    {
      "inputs": [],
      "stateMutability": "nonpayable",
      "type": "constructor"
    },
    {
      "anonymous": false,
      "inputs": [
        {
          "indexed": false,
          "internalType": "uint256",
          "name": "playerNumber",
          "type": "uint256"
        },
        {
          "indexed": false,
          "internalType": "address",
          "name": "playerAddress",
          "type": "address"
        }
      ],
      "name": "PlayerAdded",
      "type": "event"
    },
    {
      "anonymous": false,
      "inputs": [
        {
          "indexed": false,
          "internalType": "address",
          "name": "winner",
          "type": "address"
        }
      ],
      "name": "WinnerPicked",
      "type": "event"
    },
    {
      "inputs": [],
      "name": "manager",
      "outputs": [
        {
          "internalType": "address payable",
          "name": "",
          "type": "address"
        }
      ],
      "stateMutability": "view",
      "type": "function",
      "constant": true
    },
    {
      "inputs": [
        {
          "internalType": "uint256",
          "name": "",
          "type": "uint256"
        }
      ],
      "name": "players",
      "outputs": [
        {
          "internalType": "address payable",
          "name": "",
          "type": "address"
        }
      ],
      "stateMutability": "view",
      "type": "function",
      "constant": true
    },
    {
      "stateMutability": "payable",
      "type": "receive",
      "payable": true
    },
    {
      "inputs": [],
      "name": "getBalance",
      "outputs": [
        {
          "internalType": "uint256",
          "name": "",
          "type": "uint256"
        }
      ],
      "stateMutability": "view",
      "type": "function",
      "constant": true
    },
    {
      "inputs": [],
      "name": "random",
      "outputs": [
        {
          "internalType": "uint256",
          "name": "",
          "type": "uint256"
        }
      ],
      "stateMutability": "view",
      "type": "function",
      "constant": true
    },
    {
      "inputs": [],
      "name": "pickWinner",
      "outputs": [],
      "stateMutability": "nonpayable",
      "type": "function"
    }
  ],
  "bytecode": "0x608060405234801561001057600080fd5b50600160028190555033600160006101000a81548173ffffffffffffffffffffffffffffffffffffffff021916908373ffffffffffffffffffffffffffffffffffffffff1602179055506000600160009054906101000a900473ffffffffffffffffffffffffffffffffffffffff169080600181540180825580915050600190039060005260206000200160009091909190916101000a81548173ffffffffffffffffffffffffffffffffffffffff021916908373ffffffffffffffffffffffffffffffffffffffff160217905550600260008154809291906100f290610135565b919050555061017d565b7f4e487b7100000000000000000000000000000000000000000000000000000000600052601160045260246000fd5b6000819050919050565b60006101408261012b565b91507fffffffffffffffffffffffffffffffffffffffffffffffffffffffffffffffff8203610172576101716100fc565b5b600182019050919050565b610b188061018c6000396000f3fe60806040526004361061004e5760003560e01c806312065fe0146101b3578063481c6a75146101de5780635d495aea146102095780635ec01e4d14610220578063f71d96cb1461024b576101ae565b366101ae57600160009054906101000a900473ffffffffffffffffffffffffffffffffffffffff1673ffffffffffffffffffffffffffffffffffffffff163373ffffffffffffffffffffffffffffffffffffffff16036100e3576040517f08c379a00000000000000000000000000000000000000000000000000000000081526004016100da906106f2565b60405180910390fd5b67016345785d8a000034146100f757600080fd5b6000339080600181540180825580915050600190039060005260206000200160009091909190916101000a81548173ffffffffffffffffffffffffffffffffffffffff021916908373ffffffffffffffffffffffffffffffffffffffff1602179055507f8cb861ab56dd8729e2100e534598dc85a6c693563d2be112b07c89720d240b396002543360405161018d92919061076c565b60405180910390a1600260008154809291906101a8906107c4565b91905055005b600080fd5b3480156101bf57600080fd5b506101c8610288565b6040516101d5919061080c565b60405180910390f35b3480156101ea57600080fd5b506101f36102ea565b6040516102009190610848565b60405180910390f35b34801561021557600080fd5b5061021e610310565b005b34801561022c57600080fd5b50610235610575565b604051610242919061080c565b60405180910390f35b34801561025757600080fd5b50610272600480360381019061026d9190610894565b6105af565b60405161027f9190610848565b60405180910390f35b6000600160009054906101000a900473ffffffffffffffffffffffffffffffffffffffff1673ffffffffffffffffffffffffffffffffffffffff163373ffffffffffffffffffffffffffffffffffffffff16146102e457600080fd5b47905090565b600160009054906101000a900473ffffffffffffffffffffffffffffffffffffffff1681565b600160009054906101000a900473ffffffffffffffffffffffffffffffffffffffff1673ffffffffffffffffffffffffffffffffffffffff163373ffffffffffffffffffffffffffffffffffffffff161461036a57600080fd5b6003600080549050101561037d57600080fd5b6000610387610575565b90506000806064605a610398610288565b6103a291906108c1565b6103ac919061094a565b905060006064600a6103bc610288565b6103c691906108c1565b6103d0919061094a565b905060008080549050856103e4919061097b565b9050600081815481106103fa576103f96109ac565b5b9060005260206000200160009054906101000a900473ffffffffffffffffffffffffffffffffffffffff169350600160009054906101000a900473ffffffffffffffffffffffffffffffffffffffff1673ffffffffffffffffffffffffffffffffffffffff166108fc839081150290604051600060405180830381858888f1935050505015801561048f573d6000803e3d6000fd5b508373ffffffffffffffffffffffffffffffffffffffff166108fc849081150290604051600060405180830381858888f193505050501580156104d6573d6000803e3d6000fd5b507f5b690ec4a06fe979403046eaeea5b3ce38524683c3001f662c8b5a829632f7df846040516105069190610a3a565b60405180910390a1600067ffffffffffffffff81111561052957610528610a55565b5b6040519080825280602002602001820160405280156105575781602001602082028036833780820191505090505b506000908051906020019061056d9291906105ee565b505050505050565b6000444260008054905060405160200161059193929190610aa5565b6040516020818303038152906040528051906020012060001c905090565b600081815481106105bf57600080fd5b906000526020600020016000915054906101000a900473ffffffffffffffffffffffffffffffffffffffff1681565b828054828255906000526020600020908101928215610667579160200282015b828111156106665782518260006101000a81548173ffffffffffffffffffffffffffffffffffffffff021916908373ffffffffffffffffffffffffffffffffffffffff1602179055509160200191906001019061060e565b5b5090506106749190610678565b5090565b5b80821115610691576000816000905550600101610679565b5090565b600082825260208201905092915050565b7f4d616e6765722063616e6e6f74206a6f696e206c6f7474657279000000000000600082015250565b60006106dc601a83610695565b91506106e7826106a6565b602082019050919050565b6000602082019050818103600083015261070b816106cf565b9050919050565b6000819050919050565b61072581610712565b82525050565b600073ffffffffffffffffffffffffffffffffffffffff82169050919050565b60006107568261072b565b9050919050565b6107668161074b565b82525050565b6000604082019050610781600083018561071c565b61078e602083018461075d565b9392505050565b7f4e487b7100000000000000000000000000000000000000000000000000000000600052601160045260246000fd5b60006107cf82610712565b91507fffffffffffffffffffffffffffffffffffffffffffffffffffffffffffffffff820361080157610800610795565b5b600182019050919050565b6000602082019050610821600083018461071c565b92915050565b60006108328261072b565b9050919050565b61084281610827565b82525050565b600060208201905061085d6000830184610839565b92915050565b600080fd5b61087181610712565b811461087c57600080fd5b50565b60008135905061088e81610868565b92915050565b6000602082840312156108aa576108a9610863565b5b60006108b88482850161087f565b91505092915050565b60006108cc82610712565b91506108d783610712565b9250817fffffffffffffffffffffffffffffffffffffffffffffffffffffffffffffffff04831182151516156109105761090f610795565b5b828202905092915050565b7f4e487b7100000000000000000000000000000000000000000000000000000000600052601260045260246000fd5b600061095582610712565b915061096083610712565b9250826109705761096f61091b565b5b828204905092915050565b600061098682610712565b915061099183610712565b9250826109a1576109a061091b565b5b828206905092915050565b7f4e487b7100000000000000000000000000000000000000000000000000000000600052603260045260246000fd5b6000819050919050565b6000610a006109fb6109f68461072b565b6109db565b61072b565b9050919050565b6000610a12826109e5565b9050919050565b6000610a2482610a07565b9050919050565b610a3481610a19565b82525050565b6000602082019050610a4f6000830184610a2b565b92915050565b7f4e487b7100000000000000000000000000000000000000000000000000000000600052604160045260246000fd5b6000819050919050565b610a9f610a9a82610712565b610a84565b82525050565b6000610ab18286610a8e565b602082019150610ac18285610a8e565b602082019150610ad18284610a8e565b60208201915081905094935050505056fea26469706673582212205e3c182f3cc2972c83f8c4c1cafe1580d96c362634352f4ecdccb07413533afc64736f6c634300080f0033",
  "immutableReferences": {},
  "source": "// SPDX-License-Identifier: GPL-3.0\r\n\r\npragma solidity >= 0.5.0 < 0.9.0;\r\n\r\ncontract Lottery{\r\n    address payable[] public players;\r\n    address payable public manager;\r\n    uint playerIndex;\r\n    event PlayerAdded(uint playerNumber, address playerAddress);\r\n    event WinnerPicked(address winner);\r\n\r\n    constructor(){\r\n        playerIndex = 1;\r\n        manager = payable(msg.sender);\r\n        players.push(manager);\r\n        playerIndex++;\r\n    }\r\n\r\n    receive() external payable{\r\n        require(msg.sender != manager, \"Manger cannot join lottery\");\r\n        require(msg.value == 0.1 ether);\r\n        \r\n        players.push(payable(msg.sender));\r\n        emit PlayerAdded(playerIndex, msg.sender);\r\n        playerIndex++;\r\n    }\r\n    function getBalance() public view returns(uint){\r\n        require(msg.sender == manager);\r\n        return address(this).balance;\r\n    }\r\n\r\n    function random() public view returns(uint){\r\n        return uint(keccak256(abi.encodePacked(block.difficulty, block.timestamp, players.length)));\r\n    }\r\n\r\n    function pickWinner() public {\r\n        require(msg.sender == manager);\r\n        require(players.length >= 3);\r\n\r\n        uint r = random();\r\n        address payable winner;\r\n\r\n        uint winnersPrize = (getBalance() * 90) / 100;\r\n        uint managerFee = (getBalance() * 10) / 100;\r\n\r\n        uint index = r % players.length;\r\n        winner = players[index];\r\n        manager.transfer(managerFee);\r\n        winner.transfer(winnersPrize);\r\n        emit WinnerPicked(winner);\r\n        players = new address payable[](0);// resetting the lottery\r\n    }\r\n}",
  "sourcePath": "C:\\Users\\user\\Documents\\Blockchain-projects\\lottery-Dapp\\src\\contracts\\lottery.sol",
  "compiler": {
    "name": "solc",
    "version": "0.8.15+commit.e14f2714.Emscripten.clang"
  },
  "schemaVersion": "3.4.8",
  "updatedAt": "2022-07-18T12:47:42.646Z",
  "networkType": "ethereum",
  "devdoc": {
    "kind": "dev",
    "methods": {},
    "version": 1
  },
  "userdoc": {
    "kind": "user",
    "methods": {},
    "version": 1
  }
}