{
  "contractName": "Lottery",
  "abi": [
    {
      "inputs": [],
      "stateMutability": "nonpayable",
      "type": "constructor"
    },
    {
      "inputs": [],
      "name": "manager",
      "outputs": [
        {
          "internalType": "address payable",
          "name": "",
          "type": "address"
        }
      ],
      "stateMutability": "view",
      "type": "function",
      "constant": true
    },
    {
      "inputs": [
        {
          "internalType": "uint256",
          "name": "",
          "type": "uint256"
        }
      ],
      "name": "players",
      "outputs": [
        {
          "internalType": "address payable",
          "name": "",
          "type": "address"
        }
      ],
      "stateMutability": "view",
      "type": "function",
      "constant": true
    },
    {
      "stateMutability": "payable",
      "type": "receive",
      "payable": true
    },
    {
      "inputs": [],
      "name": "getBalance",
      "outputs": [
        {
          "internalType": "uint256",
          "name": "",
          "type": "uint256"
        }
      ],
      "stateMutability": "view",
      "type": "function",
      "constant": true
    },
    {
      "inputs": [],
      "name": "random",
      "outputs": [
        {
          "internalType": "uint256",
          "name": "",
          "type": "uint256"
        }
      ],
      "stateMutability": "view",
      "type": "function",
      "constant": true
    },
    {
      "inputs": [],
      "name": "pickWinner",
      "outputs": [],
      "stateMutability": "nonpayable",
      "type": "function"
    }
  ],
  "bytecode": "0x608060405234801561001057600080fd5b5033600160006101000a81548173ffffffffffffffffffffffffffffffffffffffff021916908373ffffffffffffffffffffffffffffffffffffffff1602179055506000600160009054906101000a900473ffffffffffffffffffffffffffffffffffffffff169080600181540180825580915050600190039060005260206000200160009091909190916101000a81548173ffffffffffffffffffffffffffffffffffffffff021916908373ffffffffffffffffffffffffffffffffffffffff160217905550610982806100e66000396000f3fe60806040526004361061004e5760003560e01c806312065fe014610160578063481c6a751461018b5780635d495aea146101b65780635ec01e4d146101cd578063f71d96cb146101f85761015b565b3661015b57600160009054906101000a900473ffffffffffffffffffffffffffffffffffffffff1673ffffffffffffffffffffffffffffffffffffffff163373ffffffffffffffffffffffffffffffffffffffff16036100e3576040517f08c379a00000000000000000000000000000000000000000000000000000000081526004016100da90610668565b60405180910390fd5b67016345785d8a000034146100f757600080fd5b6000339080600181540180825580915050600190039060005260206000200160009091909190916101000a81548173ffffffffffffffffffffffffffffffffffffffff021916908373ffffffffffffffffffffffffffffffffffffffff1602179055005b600080fd5b34801561016c57600080fd5b50610175610235565b60405161018291906106a1565b60405180910390f35b34801561019757600080fd5b506101a0610297565b6040516101ad91906106fd565b60405180910390f35b3480156101c257600080fd5b506101cb6102bd565b005b3480156101d957600080fd5b506101e26104eb565b6040516101ef91906106a1565b60405180910390f35b34801561020457600080fd5b5061021f600480360381019061021a9190610749565b610525565b60405161022c91906106fd565b60405180910390f35b6000600160009054906101000a900473ffffffffffffffffffffffffffffffffffffffff1673ffffffffffffffffffffffffffffffffffffffff163373ffffffffffffffffffffffffffffffffffffffff161461029157600080fd5b47905090565b600160009054906101000a900473ffffffffffffffffffffffffffffffffffffffff1681565b600160009054906101000a900473ffffffffffffffffffffffffffffffffffffffff1673ffffffffffffffffffffffffffffffffffffffff163373ffffffffffffffffffffffffffffffffffffffff161461031757600080fd5b6003600080549050101561032a57600080fd5b60006103346104eb565b90506000806064605a610345610235565b61034f91906107a5565b610359919061082e565b905060006064600a610369610235565b61037391906107a5565b61037d919061082e565b90506000808054905085610391919061085f565b9050600081815481106103a7576103a6610890565b5b9060005260206000200160009054906101000a900473ffffffffffffffffffffffffffffffffffffffff169350600160009054906101000a900473ffffffffffffffffffffffffffffffffffffffff1673ffffffffffffffffffffffffffffffffffffffff166108fc839081150290604051600060405180830381858888f1935050505015801561043c573d6000803e3d6000fd5b508373ffffffffffffffffffffffffffffffffffffffff166108fc849081150290604051600060405180830381858888f19350505050158015610483573d6000803e3d6000fd5b50600067ffffffffffffffff81111561049f5761049e6108bf565b5b6040519080825280602002602001820160405280156104cd5781602001602082028036833780820191505090505b50600090805190602001906104e3929190610564565b505050505050565b600044426000805490506040516020016105079392919061090f565b6040516020818303038152906040528051906020012060001c905090565b6000818154811061053557600080fd5b906000526020600020016000915054906101000a900473ffffffffffffffffffffffffffffffffffffffff1681565b8280548282559060005260206000209081019282156105dd579160200282015b828111156105dc5782518260006101000a81548173ffffffffffffffffffffffffffffffffffffffff021916908373ffffffffffffffffffffffffffffffffffffffff16021790555091602001919060010190610584565b5b5090506105ea91906105ee565b5090565b5b808211156106075760008160009055506001016105ef565b5090565b600082825260208201905092915050565b7f4d616e6765722063616e6e6f74206a6f696e206c6f7474657279000000000000600082015250565b6000610652601a8361060b565b915061065d8261061c565b602082019050919050565b6000602082019050818103600083015261068181610645565b9050919050565b6000819050919050565b61069b81610688565b82525050565b60006020820190506106b66000830184610692565b92915050565b600073ffffffffffffffffffffffffffffffffffffffff82169050919050565b60006106e7826106bc565b9050919050565b6106f7816106dc565b82525050565b600060208201905061071260008301846106ee565b92915050565b600080fd5b61072681610688565b811461073157600080fd5b50565b6000813590506107438161071d565b92915050565b60006020828403121561075f5761075e610718565b5b600061076d84828501610734565b91505092915050565b7f4e487b7100000000000000000000000000000000000000000000000000000000600052601160045260246000fd5b60006107b082610688565b91506107bb83610688565b9250817fffffffffffffffffffffffffffffffffffffffffffffffffffffffffffffffff04831182151516156107f4576107f3610776565b5b828202905092915050565b7f4e487b7100000000000000000000000000000000000000000000000000000000600052601260045260246000fd5b600061083982610688565b915061084483610688565b925082610854576108536107ff565b5b828204905092915050565b600061086a82610688565b915061087583610688565b925082610885576108846107ff565b5b828206905092915050565b7f4e487b7100000000000000000000000000000000000000000000000000000000600052603260045260246000fd5b7f4e487b7100000000000000000000000000000000000000000000000000000000600052604160045260246000fd5b6000819050919050565b61090961090482610688565b6108ee565b82525050565b600061091b82866108f8565b60208201915061092b82856108f8565b60208201915061093b82846108f8565b60208201915081905094935050505056fea2646970667358221220c54fb3d5edc647a3a99ea9bed525ffd0c84b25026c59208c4c6d3385b912c51b64736f6c634300080f0033",
  "immutableReferences": {},
  "source": "// SPDX-License-Identifier: GPL-3.0\r\n\r\npragma solidity >= 0.5.0 < 0.9.0;\r\n\r\ncontract Lottery{\r\n    address payable[] public players;\r\n    address payable public manager;\r\n\r\n    constructor(){\r\n        manager = payable(msg.sender);\r\n        players.push(manager);\r\n    }\r\n\r\n    receive() external payable{\r\n        require(msg.sender != manager, \"Manger cannot join lottery\");\r\n        require(msg.value == 0.1 ether);\r\n        \r\n        players.push(payable(msg.sender));\r\n    }\r\n    function getBalance() public view returns(uint){\r\n        require(msg.sender == manager);\r\n        return address(this).balance;\r\n    }\r\n\r\n    function random() public view returns(uint){\r\n        return uint(keccak256(abi.encodePacked(block.difficulty, block.timestamp, players.length)));\r\n    }\r\n\r\n    function pickWinner() public {\r\n        require(msg.sender == manager);\r\n        require(players.length >= 3);\r\n\r\n        uint r = random();\r\n        address payable winner;\r\n\r\n        uint winnersPrize = (getBalance() * 90) / 100;\r\n        uint managerFee = (getBalance() * 10) / 100;\r\n\r\n        uint index = r % players.length;\r\n        winner = players[index];\r\n        manager.transfer(managerFee);\r\n        winner.transfer(winnersPrize);\r\n        players = new address payable[](0);// resetting the lottery\r\n    }\r\n}",
  "sourcePath": "C:\\Users\\user\\Documents\\Blockchain-projects\\lottery-Dapp\\src\\contracts\\lottery.sol",
  "compiler": {
    "name": "solc",
    "version": "0.8.15+commit.e14f2714.Emscripten.clang"
  },
  "schemaVersion": "3.4.8",
  "updatedAt": "2022-07-17T10:44:50.671Z",
  "networkType": "ethereum",
  "devdoc": {
    "kind": "dev",
    "methods": {},
    "version": 1
  },
  "userdoc": {
    "kind": "user",
    "methods": {},
    "version": 1
  }
}